:1000000047C0A6C15EC05DC05CC05BC05AC059C0DD
:1000100058C057C056C055C054C053C052C051C03C
:1000200050C04FC04EC004030904200363006F009A
:100030006400650061006E0064006C006900660089
:1000400065002E0063006F006D001403550053001F
:1000500042004400650076006900630065001201FB
:10006000100100000008C016E803000101020001B1
:1000700009022000010100801909040000020000AB
:100080000000070581030800640705830308006476
:1000900011241FBECFEDCDBF10E0A0E6B0E0E6E535
:1000A000F7E002C005900D92A237B107D9F710E032
:1000B000A2E7B0E001C01D92AC3BB107E1F7FED270
:1000C00048C39ECF85B7826085BF8BB780648BBFE6
:1000D0008BE4809386008093B1008AE5809385004D
:1000E0008093B00008951F93CF93DF939091960073
:1000F000935097FD8EC020919300809192008D3295
:1001000009F085C0983009F082C0CCE0D0E0C21B75
:10011000D109C656DF4F83EC80937A008AE580933D
:100120006000109272008881807621F0CE0155D255
:10013000282F64C09A81109283008981882321F43A
:100140001092840022E054C0853019F490939700F7
:100150004EC08630B1F58B81813041F48EE590E060
:10016000909395008093940022E127C0823019F487
:1001700080E790E011C08330F9F48A81882341F44C
:1001800086E290E0909395008093940024E015C05F
:10019000813041F48AE290E090939500809394003E
:1001A00020E20BC0823041F48AE490E09093950005
:1001B0008093940024E101C020E080E480937200E9
:1001C0001DC0883021F421E089E990E013C0893016
:1001D00019F4909399000BC08A3011F421E008C003
:1001E0008B3029F48BE4809386008093B10020E06B
:1001F00083E890E090939500809394008F8188230A
:1002000021F48E81821708F4282F20936100109228
:1002100096008091600084FF49C0809161008F3F0B
:1002200009F444C0182F893008F018E0811B80932E
:10023000610080917A0098E8892780937A001123E1
:1002400041F120919400309195008091720086FFD9
:100250000DC0ABE7B0E080E090E0F901E80FF91FD6
:10026000E491ED9301961817C1F708C0912FD901B9
:10027000EBE7F0E08D9181939150E1F71150812FE0
:1002800090E01F5F0196820F931F909395008093DB
:1002900094008BE790E0612F57D0612F6C5F6C303A
:1002A00019F08FEF809361006093600094E180B358
:1002B0008C7031F49150D9F7109297001092910000
:1002C000DF91CF911F9108951F93CF93DF93DC01AE
:1002D000162FEA01888184FF05C0898198E8892763
:1002E000898302C08AE58883AE014E5F5F4F212F6C
:1002F000FA018D91819321501216DCF3CA01612F0E
:1003000023D01C5F1883DF91CF911F91089540EB9C
:1003100050E0DADF089545E850E0D6DF0895A82FD1
:10032000B92F80E090E041E050EA609530E009C0EC
:100330002D9182279795879510F084279527305E19
:10034000C8F36F5FA8F30895EADF8D939D93089536
:10035000CF93CFB7CF93C395839BE9F7839B09C016
:10036000839B07C0839B05C0839B03C0839B01C005
:10037000A3C0DF93C0919300DD27C656DF4F839B58
:1003800002C0DF91EBCF2F930F931F9300B32FEF9A
:1003900003FB20F94F933F9310B34FEF012703FB6B
:1003A00021F93BE031C04E7F012F10B3216028C0FE
:1003B000102F4D7F2260000000B329C04B7F2460C6
:1003C000012F000010B32BC010B3477F28602AC054
:1003D0004F7E00B320612CC04F7D10B320622FC030
:1003E0004F7B00B3206432C0422700B349934FEFE4
:1003F0000000102713FB20F910B31C70C9F1297FEE
:1004000091F2012703FB21F900B3237F89F23150D8
:1004100058F1102713FB22F910B3277E79F2012738
:1004200003FB23F92F7C81F200B3102713FB24F97F
:100430002F7971F200C010B3012703FB25F92F7348
:1004400059F200C000B3102713FB26F9223040F206
:1004500000C010B3012703FB27F9243028F64F779B
:10046000206810B30000F9CF10E41ABF002719C0AC
:100470003B503195C31BD04010E41ABF0881033CA8
:10048000F9F00B34E9F0209191001981110F12134A
:10049000EDCF4A81441F093641F10D3211F0013E82
:1004A00029F7009398003F914F911F910F912F9141
:1004B000DF91CAB7C6FD4FCFCF91CFBFCF9118956F
:1004C00020919800222379F3109196001123C1F511
:1004D0003430C2F130939600209392001091930033
:1004E0003BE0311B309393002DC00091960001300A
:1004F0003CF50AE54F7049F43091600034FD24C0AA
:1005000000936000CAE7D0E023C0433049F0309147
:10051000850034FD19C000938500C6E8D0E018C0FE
:100520003091B00034FD10C00093B000C1EBD0E0BA
:100530000FC02795A8F45150A9F4220F0000F9CF5D
:100540004AE503C042ED01C0432FC4E1D0E032E0F0
:1005500011B31C60939A11BB02B320E41CE05F93BB
:10056000012756E002BB279520F4515021F4220FB9
:10057000F9CF012756E000003B5A02BBD0F2279585
:1005800028F4515029F4220F0000F9CF012756E03A
:10059000279502BB20F4515021F4220FF9CF0127F7
:1005A00056E02991332302BB21F6037F1091970077
:1005B000110FC651D04002BB11F01093910010E40E
:1005C0001ABF086011B3137F402F437F5F9100C0B3
:1005D00000C002BB11BB42BB66CFFC0180818076AC
:1005E0008032D1F48181813041F485E790E09093AD
:1005F00095008093940084E00895823041F489E767
:1006000090E0909395008093940081E008958A3063
:1006100019F48381809379008181823081F0833065
:1006200028F4882351F08130F1F405C0833079F04B
:100630008430C9F41AC0C79A16C0C79814C082E69D
:1006400090E0909395008093940080E108958281DA
:1006500080936900838180936A00848180936B001A
:10066000858180936C0080E008958681809374007A
:1006700010927300813110F48FEF089580E1809320
:1006800074008FEF089540917400E0917300DC01D5
:1006900090E007C0F0E0EE59FF4F8D9180839F5F9F
:1006A000E22FE41720F42E2F2F5F961798F3E09394
:1006B000730080E0E41709F481E00895EF92FF925F
:1006C0000F931F93CF93DF9388EF87BB88E088BB9E
:1006D0002EE088E190E00FB6F894A89581BD0FBE9A
:1006E00021BDF0DC8B9A20E040E757E1A895CA01D4
:1006F0000197F1F72F5F2A3FC9F78B98789491E61D
:10070000E92E82E6F82E08E719E7CCE2D1E0A895B9
:10071000EADC8091850084FF08C0E0927600F092C8
:10072000770085E790E064E0F6DDB19BF0CFC69AF4
:10073000009376001093770085E790E064E0E7DDB2
:1007400080E197E2FE013197F1F70197D9F7C6985A
:06075000DECFF894FFCF9C
:100756005AFF48656C6C6F2C2055534221000000EF
:02076600000091
:00000001FF
